{
  "contractName": "Book",
  "abi": [
    {
      "constant": true,
      "inputs": [],
      "name": "rewardPool",
      "outputs": [
        {
          "name": "",
          "type": "uint256"
        }
      ],
      "payable": false,
      "stateMutability": "view",
      "type": "function"
    },
    {
      "constant": true,
      "inputs": [
        {
          "name": "",
          "type": "uint256"
        }
      ],
      "name": "parts",
      "outputs": [
        {
          "name": "id",
          "type": "uint32"
        },
        {
          "name": "author",
          "type": "address"
        },
        {
          "name": "currentValue",
          "type": "uint256"
        },
        {
          "name": "color",
          "type": "uint8"
        },
        {
          "name": "font",
          "type": "uint8"
        },
        {
          "name": "content",
          "type": "string"
        }
      ],
      "payable": false,
      "stateMutability": "view",
      "type": "function"
    },
    {
      "inputs": [
        {
          "name": "maxPart",
          "type": "uint32"
        },
        {
          "name": "maxChar",
          "type": "uint32"
        }
      ],
      "payable": false,
      "stateMutability": "nonpayable",
      "type": "constructor"
    },
    {
      "anonymous": false,
      "inputs": [
        {
          "indexed": false,
          "name": "partID",
          "type": "uint32"
        },
        {
          "indexed": false,
          "name": "author",
          "type": "address"
        },
        {
          "indexed": false,
          "name": "currentValue",
          "type": "uint256"
        },
        {
          "indexed": false,
          "name": "color",
          "type": "uint8"
        },
        {
          "indexed": false,
          "name": "font",
          "type": "uint8"
        },
        {
          "indexed": false,
          "name": "content",
          "type": "string"
        }
      ],
      "name": "storyUpdated",
      "type": "event"
    },
    {
      "constant": false,
      "inputs": [
        {
          "name": "partID",
          "type": "uint32"
        },
        {
          "name": "color",
          "type": "uint8"
        },
        {
          "name": "font",
          "type": "uint8"
        },
        {
          "name": "content",
          "type": "string"
        }
      ],
      "name": "buyStoryPart",
      "outputs": [],
      "payable": true,
      "stateMutability": "payable",
      "type": "function"
    },
    {
      "constant": true,
      "inputs": [
        {
          "name": "partID",
          "type": "uint32"
        }
      ],
      "name": "getLastValueByID",
      "outputs": [
        {
          "name": "",
          "type": "uint256"
        }
      ],
      "payable": false,
      "stateMutability": "view",
      "type": "function"
    },
    {
      "constant": true,
      "inputs": [
        {
          "name": "partID",
          "type": "uint32"
        }
      ],
      "name": "getAuthorAddressByID",
      "outputs": [
        {
          "name": "",
          "type": "address"
        }
      ],
      "payable": false,
      "stateMutability": "view",
      "type": "function"
    },
    {
      "constant": true,
      "inputs": [
        {
          "name": "partID",
          "type": "uint32"
        }
      ],
      "name": "getContentByID",
      "outputs": [
        {
          "name": "",
          "type": "string"
        }
      ],
      "payable": false,
      "stateMutability": "view",
      "type": "function"
    },
    {
      "constant": true,
      "inputs": [
        {
          "name": "partID",
          "type": "uint32"
        }
      ],
      "name": "getColorByID",
      "outputs": [
        {
          "name": "",
          "type": "uint8"
        }
      ],
      "payable": false,
      "stateMutability": "view",
      "type": "function"
    },
    {
      "constant": true,
      "inputs": [
        {
          "name": "partID",
          "type": "uint32"
        }
      ],
      "name": "getFontByID",
      "outputs": [
        {
          "name": "",
          "type": "uint8"
        }
      ],
      "payable": false,
      "stateMutability": "view",
      "type": "function"
    }
  ],
  "bytecode": "0x60806040526000600155670de0b6b3a76400006003553480156200002257600080fd5b50604051604080620010fa833981018060405281019080805190602001909291908051906020019092919050505033600260006101000a81548173ffffffffffffffffffffffffffffffffffffffff021916908373ffffffffffffffffffffffffffffffffffffffff16021790555081600260186101000a81548163ffffffff021916908363ffffffff16021790555080600260146101000a81548163ffffffff021916908363ffffffff160217905550620000ec620000f4640100000000026401000000009004565b5050620003d8565b600062000100620002d0565b600091505b600260189054906101000a900463ffffffff1663ffffffff168263ffffffff161015620002cc5760c0604051908101604052808363ffffffff168152602001600260009054906101000a900473ffffffffffffffffffffffffffffffffffffffff1673ffffffffffffffffffffffffffffffffffffffff1681526020016003548152602001600060ff168152602001600060ff168152602001602060405190810160405280600081525081525090506000819080600181540180825580915050906001820390600052602060002090600402016000909192909190915060008201518160000160006101000a81548163ffffffff021916908363ffffffff16021790555060208201518160000160046101000a81548173ffffffffffffffffffffffffffffffffffffffff021916908373ffffffffffffffffffffffffffffffffffffffff1602179055506040820151816001015560608201518160020160006101000a81548160ff021916908360ff16021790555060808201518160020160016101000a81548160ff021916908360ff16021790555060a0820151816003019080519060200190620002ba92919062000329565b50505050818060010192505062000105565b5050565b60c060405190810160405280600063ffffffff168152602001600073ffffffffffffffffffffffffffffffffffffffff16815260200160008152602001600060ff168152602001600060ff168152602001606081525090565b828054600181600116156101000203166002900490600052602060002090601f016020900481019282601f106200036c57805160ff19168380011785556200039d565b828001600101855582156200039d579182015b828111156200039c5782518255916020019190600101906200037f565b5b509050620003ac9190620003b0565b5090565b620003d591905b80821115620003d1576000816000905550600101620003b7565b5090565b90565b610d1280620003e86000396000f30060806040526004361061008e576000357c0100000000000000000000000000000000000000000000000000000000900463ffffffff16806366666aa9146100935780638dab2ef0146100be5780639f3ca88514610105578063a932937214610152578063c0a3155f146101d8578063c9eb46621461024b578063dc01fd9914610358578063edc1ff2914610404575b600080fd5b34801561009f57600080fd5b506100a8610451565b6040518082815260200191505060405180910390f35b3480156100ca57600080fd5b506100ef600480360381019080803563ffffffff169060200190929190505050610457565b6040518082815260200191505060405180910390f35b34801561011157600080fd5b50610136600480360381019080803563ffffffff169060200190929190505050610486565b604051808260ff1660ff16815260200191505060405180910390f35b6101d6600480360381019080803563ffffffff169060200190929190803560ff169060200190929190803560ff169060200190929190803590602001908201803590602001908080601f01602080910402602001604051908101604052809392919081815260200183838082843782019150505050505091929192905050506104c2565b005b3480156101e457600080fd5b50610209600480360381019080803563ffffffff1690602001909291905050506108f0565b604051808273ffffffffffffffffffffffffffffffffffffffff1673ffffffffffffffffffffffffffffffffffffffff16815260200191505060405180910390f35b34801561025757600080fd5b506102766004803603810190808035906020019092919050505061093f565b604051808763ffffffff1663ffffffff1681526020018673ffffffffffffffffffffffffffffffffffffffff1673ffffffffffffffffffffffffffffffffffffffff1681526020018581526020018460ff1660ff1681526020018360ff1660ff16815260200180602001828103825283818151815260200191508051906020019080838360005b838110156103185780820151818401526020810190506102fd565b50505050905090810190601f1680156103455780820380516001836020036101000a031916815260200191505b5097505050505050505060405180910390f35b34801561036457600080fd5b50610389600480360381019080803563ffffffff169060200190929190505050610a6c565b6040518080602001828103825283818151815260200191508051906020019080838360005b838110156103c95780820151818401526020810190506103ae565b50505050905090810190601f1680156103f65780820380516001836020036101000a031916815260200191505b509250505060405180910390f35b34801561041057600080fd5b50610435600480360381019080803563ffffffff169060200190929190505050610b34565b604051808260ff1660ff16815260200191505060405180910390f35b60015481565b6000808263ffffffff1681548110151561046d57fe5b9060005260206000209060040201600101549050919050565b6000808263ffffffff1681548110151561049c57fe5b906000526020600020906004020160020160019054906101000a900460ff169050919050565b60008060006104cf610be8565b87600260189054906101000a900463ffffffff1663ffffffff168163ffffffff161015156104fc57600080fd5b3494506003600260008b63ffffffff1681548110151561051857fe5b90600052602060002090600402016001015481151561053357fe5b0402851015151561054357600080fd5b600260149054906101000a900463ffffffff1663ffffffff1686511115151561056b57600080fd5b60008963ffffffff1681548110151561058057fe5b90600052602060002090600402016001015493506105e460008a63ffffffff168154811015156105ac57fe5b906000526020600020906004020160000160049054906101000a900473ffffffffffffffffffffffffffffffffffffffff1685610b70565b508385039250600a838115156105f657fe5b04925061064c60008a63ffffffff1681548110151561061157fe5b906000526020600020906004020160000160049054906101000a900473ffffffffffffffffffffffffffffffffffffffff1660058502610b70565b5061067c600260009054906101000a900473ffffffffffffffffffffffffffffffffffffffff1660048502610b70565b508260016000828254019250508190555060c0604051908101604052808a63ffffffff1681526020013373ffffffffffffffffffffffffffffffffffffffff1681526020018681526020018960ff1681526020018860ff1681526020018781525091508160008a63ffffffff168154811015156106f557fe5b906000526020600020906004020160008201518160000160006101000a81548163ffffffff021916908363ffffffff16021790555060208201518160000160046101000a81548173ffffffffffffffffffffffffffffffffffffffff021916908373ffffffffffffffffffffffffffffffffffffffff1602179055506040820151816001015560608201518160020160006101000a81548160ff021916908360ff16021790555060808201518160020160016101000a81548160ff021916908360ff16021790555060a08201518160030190805190602001906107d9929190610c41565b509050507f9093c41fa0314744ab6acdf28713e63b3e7226c2e96fd85a06dad34cb79cda468933878b8b8b604051808763ffffffff1663ffffffff1681526020018673ffffffffffffffffffffffffffffffffffffffff1673ffffffffffffffffffffffffffffffffffffffff1681526020018581526020018460ff1660ff1681526020018360ff1660ff16815260200180602001828103825283818151815260200191508051906020019080838360005b838110156108a657808201518184015260208101905061088b565b50505050905090810190601f1680156108d35780820380516001836020036101000a031916815260200191505b5097505050505050505060405180910390a1505050505050505050565b6000808263ffffffff1681548110151561090657fe5b906000526020600020906004020160000160049054906101000a900473ffffffffffffffffffffffffffffffffffffffff169050919050565b60008181548110151561094e57fe5b90600052602060002090600402016000915090508060000160009054906101000a900463ffffffff16908060000160049054906101000a900473ffffffffffffffffffffffffffffffffffffffff16908060010154908060020160009054906101000a900460ff16908060020160019054906101000a900460ff1690806003018054600181600116156101000203166002900480601f016020809104026020016040519081016040528092919081815260200182805460018160011615610100020316600290048015610a625780601f10610a3757610100808354040283529160200191610a62565b820191906000526020600020905b815481529060010190602001808311610a4557829003601f168201915b5050505050905086565b606060008263ffffffff16815481101515610a8357fe5b90600052602060002090600402016003018054600181600116156101000203166002900480601f016020809104026020016040519081016040528092919081815260200182805460018160011615610100020316600290048015610b285780601f10610afd57610100808354040283529160200191610b28565b820191906000526020600020905b815481529060010190602001808311610b0b57829003601f168201915b50505050509050919050565b6000808263ffffffff16815481101515610b4a57fe5b906000526020600020906004020160020160009054906101000a900460ff169050919050565b60003073ffffffffffffffffffffffffffffffffffffffff163182101515610b9757600080fd5b8273ffffffffffffffffffffffffffffffffffffffff166108fc839081150290604051600060405180830381858888f19350505050158015610bdd573d6000803e3d6000fd5b506001905092915050565b60c060405190810160405280600063ffffffff168152602001600073ffffffffffffffffffffffffffffffffffffffff16815260200160008152602001600060ff168152602001600060ff168152602001606081525090565b828054600181600116156101000203166002900490600052602060002090601f016020900481019282601f10610c8257805160ff1916838001178555610cb0565b82800160010185558215610cb0579182015b82811115610caf578251825591602001919060010190610c94565b5b509050610cbd9190610cc1565b5090565b610ce391905b80821115610cdf576000816000905550600101610cc7565b5090565b905600a165627a7a72305820842f1492bb84226d800a972641c39a1d03a682a1a08e09ce1392b5b2ff30d9a00029",
  "source": "pragma solidity ^0.4.25;\n\ncontract Book\n{\n    // 佈署的時候決定段落總數,每段字數上限\n    constructor(uint32 maxPart, uint32 maxChar) public\n    {\n        owner = msg.sender;\n        totalPart = maxPart;\n        maxCharPerPart = maxChar;\n        init();\n    }\n    \n    event storyUpdated(uint32 partID, address author, uint256 currentValue, uint8 color, uint8 font, string content);\n    \n    // 段落定義\n    struct StoryPart\n    {\n        uint32 id;              //段落編號\n        address author;         //該段落目前作者\n        uint256 currentValue;   //目前價值\n        uint8 color;            //文字顏色\n        uint8 font;             //文字字型\n        string content;         //段落文字內容\n    }\n    \n//region members\n    // public 所有段落內容\n    StoryPart[] public parts;\n    \n    // public 獎金池\n    uint256 public rewardPool = 0;\n    \n    // 我們服務用的錢包地址\n    address owner;\n    \n    // 每段字數上限\n    uint32 maxCharPerPart;\n    \n    // 段落總數\n    uint32 totalPart;\n    \n    // 所有段落的初始價值 1 Dexon\n    uint256 defaultValue = 1e18;\n    \n    // 下次增額的倍率\n    // ufixed8x8 nextValueRate = 1.5;\n//endregion\n\n//region buy function    \n    // 使用者購買段落所有權\n    function buyStoryPart(uint32 partID, uint8 color, uint8 font, string memory content) inBook(partID) public  payable\n    {\n        // 檢查交易金額\n        uint256 value = msg.value;\n        require(value >= parts[partID].currentValue / 2 * 3);\n        \n        // 檢查字數\n        require(bytes(content).length <= maxCharPerPart);\n        \n        // 發錢囉\n        // 先讓前一位作者拿回本金\n        uint256 lastValue = parts[partID].currentValue;\n        withdrawToSomeone(parts[partID].author, lastValue);\n        // 分配剩餘金額\n        uint256 n = value - lastValue;\n        n = n / 10;\n        // 前一位作者的紅利\n        withdrawToSomeone(parts[partID].author, n * 5);\n        // 給我們的酬勞\n        withdrawToSomeone(owner, n * 4);\n        // 進入獎金池\n        rewardPool += n;\n        \n        //交易成立，更改段落\n        StoryPart memory part = StoryPart(partID, msg.sender, value, color, font, content);\n        parts[partID] = part;\n        emit storyUpdated(partID, msg.sender, value, color, font, content);\n    }\n//endregion  \n    \n//region get function\n    // 輸入故事段落編號，取得該段落上次出價金額\n    function getLastValueByID(uint32 partID) public view returns(uint256)\n    {\n        return parts[partID].currentValue;\n    }\n    \n    // 輸入故事段落編號，取得該段落作者Dexon錢包地址 (暱稱需另外儲存在我們自己的Server上，否則更改暱稱需經過區塊鏈運算)\n    function getAuthorAddressByID(uint32 partID) public view returns(address)\n    {\n        return parts[partID].author;\n    }\n    \n    // 輸入故事段落編號，取得該段落文字內容\n    function getContentByID(uint32 partID) public view returns(string memory)\n    {\n        return parts[partID].content;\n    }\n    \n    // 輸入故事段落編號，取得該段落文字顏色\n    function getColorByID(uint32 partID) public view returns(uint8)\n    {\n        return parts[partID].color;\n    }\n    \n    // 輸入故事段落編號，取得該段落文字字型\n    function getFontByID(uint32 partID) public view returns(uint8)\n    {\n        return parts[partID].font;\n    }\n//endregion\n\n//region private function   \n    // 初始化所有段落\n    function init () private\n    {\n        for(uint32 i = 0; i < totalPart ; i++)\n        {\n            StoryPart memory part = StoryPart(i, owner, defaultValue, 0, 0, \"\");\n            parts.push(part);\n        }\n    }\n    \n    function withdrawToSomeone(address someone, uint amount) private returns(bool) {\n        require(amount < address(this).balance);\n        address(someone).transfer(amount);\n        return true;\n    }\n     \n    //結束\n    // function endBook() onlyOwner public\n    // {\n    //      emit selfdestruct(owner);\n    // }\n    \n    //我們服務專用的功能\n    modifier onlyOwner() {\n        require(msg.sender == owner);\n        _;\n    }\n    \n    //是在範圍內的段落編號\n    modifier inBook(uint32 partID) {\n        require(partID < totalPart);\n        _;\n    }\n//endregion\n    \n}",
  "sourcePath": "/Users/allenhsu/Documents/project/dexon-hackathon/contracts/Book.sol",
  "compiler": {
    "name": "dsolc",
    "version": "0.4.25+commit.433aebb7.Emscripten.clang"
  },
  "schemaVersion": "2.0.2",
  "updatedAt": "2018-12-15T09:22:00.200Z"
}