{
  "contractName": "Book",
  "abi": [
    {
      "constant": true,
      "inputs": [],
      "name": "isEnd",
      "outputs": [
        {
          "name": "",
          "type": "bool"
        }
      ],
      "payable": false,
      "stateMutability": "view",
      "type": "function"
    },
    {
      "constant": true,
      "inputs": [
        {
          "name": "",
          "type": "uint256"
        }
      ],
      "name": "leaderboardAddrs",
      "outputs": [
        {
          "name": "",
          "type": "address"
        }
      ],
      "payable": false,
      "stateMutability": "view",
      "type": "function"
    },
    {
      "constant": true,
      "inputs": [],
      "name": "rewardPool",
      "outputs": [
        {
          "name": "",
          "type": "uint256"
        }
      ],
      "payable": false,
      "stateMutability": "view",
      "type": "function"
    },
    {
      "constant": true,
      "inputs": [
        {
          "name": "",
          "type": "uint256"
        }
      ],
      "name": "parts",
      "outputs": [
        {
          "name": "id",
          "type": "uint32"
        },
        {
          "name": "author",
          "type": "address"
        },
        {
          "name": "currentValue",
          "type": "uint256"
        },
        {
          "name": "color",
          "type": "uint8"
        },
        {
          "name": "font",
          "type": "uint8"
        },
        {
          "name": "content",
          "type": "string"
        },
        {
          "name": "timestamp",
          "type": "uint256"
        }
      ],
      "payable": false,
      "stateMutability": "view",
      "type": "function"
    },
    {
      "constant": true,
      "inputs": [
        {
          "name": "",
          "type": "address"
        }
      ],
      "name": "leaderboard",
      "outputs": [
        {
          "name": "",
          "type": "uint32"
        }
      ],
      "payable": false,
      "stateMutability": "view",
      "type": "function"
    },
    {
      "inputs": [
        {
          "name": "maxPart",
          "type": "uint32"
        },
        {
          "name": "maxChar",
          "type": "uint32"
        }
      ],
      "payable": false,
      "stateMutability": "nonpayable",
      "type": "constructor"
    },
    {
      "anonymous": false,
      "inputs": [
        {
          "indexed": false,
          "name": "partID",
          "type": "uint32"
        },
        {
          "indexed": false,
          "name": "author",
          "type": "address"
        },
        {
          "indexed": false,
          "name": "currentValue",
          "type": "uint256"
        },
        {
          "indexed": false,
          "name": "color",
          "type": "uint8"
        },
        {
          "indexed": false,
          "name": "font",
          "type": "uint8"
        },
        {
          "indexed": false,
          "name": "content",
          "type": "string"
        }
      ],
      "name": "storyUpdated",
      "type": "event"
    },
    {
      "constant": false,
      "inputs": [
        {
          "name": "x",
          "type": "uint256"
        }
      ],
      "name": "set",
      "outputs": [],
      "payable": true,
      "stateMutability": "payable",
      "type": "function"
    },
    {
      "constant": true,
      "inputs": [],
      "name": "get",
      "outputs": [
        {
          "name": "",
          "type": "uint256"
        }
      ],
      "payable": false,
      "stateMutability": "view",
      "type": "function"
    },
    {
      "constant": false,
      "inputs": [
        {
          "name": "partID",
          "type": "uint32"
        },
        {
          "name": "color",
          "type": "uint8"
        },
        {
          "name": "font",
          "type": "uint8"
        },
        {
          "name": "content",
          "type": "string"
        }
      ],
      "name": "buyStoryPart",
      "outputs": [],
      "payable": true,
      "stateMutability": "payable",
      "type": "function"
    },
    {
      "constant": false,
      "inputs": [],
      "name": "theEnd",
      "outputs": [],
      "payable": false,
      "stateMutability": "nonpayable",
      "type": "function"
    },
    {
      "constant": true,
      "inputs": [],
      "name": "getLeaderboardCount",
      "outputs": [
        {
          "name": "",
          "type": "uint256"
        }
      ],
      "payable": false,
      "stateMutability": "view",
      "type": "function"
    },
    {
      "constant": true,
      "inputs": [],
      "name": "getStoryPartCount",
      "outputs": [
        {
          "name": "",
          "type": "uint256"
        }
      ],
      "payable": false,
      "stateMutability": "view",
      "type": "function"
    },
    {
      "constant": true,
      "inputs": [
        {
          "name": "partID",
          "type": "uint32"
        }
      ],
      "name": "getLastValueByID",
      "outputs": [
        {
          "name": "",
          "type": "uint256"
        }
      ],
      "payable": false,
      "stateMutability": "view",
      "type": "function"
    },
    {
      "constant": true,
      "inputs": [
        {
          "name": "partID",
          "type": "uint32"
        }
      ],
      "name": "getAuthorAddressByID",
      "outputs": [
        {
          "name": "",
          "type": "address"
        }
      ],
      "payable": false,
      "stateMutability": "view",
      "type": "function"
    },
    {
      "constant": true,
      "inputs": [
        {
          "name": "partID",
          "type": "uint32"
        }
      ],
      "name": "getContentByID",
      "outputs": [
        {
          "name": "",
          "type": "string"
        }
      ],
      "payable": false,
      "stateMutability": "view",
      "type": "function"
    },
    {
      "constant": true,
      "inputs": [
        {
          "name": "partID",
          "type": "uint32"
        }
      ],
      "name": "getColorByID",
      "outputs": [
        {
          "name": "",
          "type": "uint8"
        }
      ],
      "payable": false,
      "stateMutability": "view",
      "type": "function"
    },
    {
      "constant": true,
      "inputs": [
        {
          "name": "partID",
          "type": "uint32"
        }
      ],
      "name": "getFontByID",
      "outputs": [
        {
          "name": "",
          "type": "uint8"
        }
      ],
      "payable": false,
      "stateMutability": "view",
      "type": "function"
    }
  ],
  "bytecode": "0x608060405260006001556000600560006101000a81548160ff021916908315150217905550670de0b6b3a76400006006553480156200003d57600080fd5b50604051604080620019ae833981018060405281019080805190602001909291908051906020019092919050505033600560016101000a81548173ffffffffffffffffffffffffffffffffffffffff021916908373ffffffffffffffffffffffffffffffffffffffff16021790555081600560196101000a81548163ffffffff021916908363ffffffff16021790555080600560156101000a81548163ffffffff021916908363ffffffff160217905550620001076200010f640100000000026401000000009004565b50506200040a565b60006200011b620002fb565b600091505b600560199054906101000a900463ffffffff1663ffffffff168263ffffffff161015620002f75760e0604051908101604052808363ffffffff168152602001600560019054906101000a900473ffffffffffffffffffffffffffffffffffffffff1673ffffffffffffffffffffffffffffffffffffffff1681526020016006548152602001600060ff168152602001600060ff168152602001602060405190810160405280600081525081526020014281525090506000819080600181540180825580915050906001820390600052602060002090600502016000909192909190915060008201518160000160006101000a81548163ffffffff021916908363ffffffff16021790555060208201518160000160046101000a81548173ffffffffffffffffffffffffffffffffffffffff021916908373ffffffffffffffffffffffffffffffffffffffff1602179055506040820151816001015560608201518160020160006101000a81548160ff021916908360ff16021790555060808201518160020160016101000a81548160ff021916908360ff16021790555060a0820151816003019080519060200190620002db9291906200035b565b5060c08201518160040155505050818060010192505062000120565b5050565b60e060405190810160405280600063ffffffff168152602001600073ffffffffffffffffffffffffffffffffffffffff16815260200160008152602001600060ff168152602001600060ff16815260200160608152602001600081525090565b828054600181600116156101000203166002900490600052602060002090601f016020900481019282601f106200039e57805160ff1916838001178555620003cf565b82800160010185558215620003cf579182015b82811115620003ce578251825591602001919060010190620003b1565b5b509050620003de9190620003e2565b5090565b6200040791905b8082111562000403576000816000905550600101620003e9565b5090565b90565b611594806200041a6000396000f3006080604052600436106100e6576000357c0100000000000000000000000000000000000000000000000000000000900463ffffffff16806322b68deb146100eb5780632fc6e8b7146101025780634a1c7ccf1461013157806360fe47b11461019e57806366666aa9146101be5780636d4ce63c146101e95780638dab2ef014610214578063973e1ffa1461025b5780639f3ca88514610286578063a9329372146102d3578063c086bf2914610359578063c0a3155f14610384578063c9eb4662146103f7578063d1d33d201461050b578063dc01fd991461056e578063edc1ff291461061a575b600080fd5b3480156100f757600080fd5b50610100610667565b005b34801561010e57600080fd5b506101176107b2565b604051808215151515815260200191505060405180910390f35b34801561013d57600080fd5b5061015c600480360381019080803590602001909291905050506107c5565b604051808273ffffffffffffffffffffffffffffffffffffffff1673ffffffffffffffffffffffffffffffffffffffff16815260200191505060405180910390f35b6101bc60048036038101908080359060200190929190505050610803565b005b3480156101ca57600080fd5b506101d361080d565b6040518082815260200191505060405180910390f35b3480156101f557600080fd5b506101fe610813565b6040518082815260200191505060405180910390f35b34801561022057600080fd5b50610245600480360381019080803563ffffffff16906020019092919050505061081d565b6040518082815260200191505060405180910390f35b34801561026757600080fd5b5061027061084c565b6040518082815260200191505060405180910390f35b34801561029257600080fd5b506102b7600480360381019080803563ffffffff169060200190929190505050610858565b604051808260ff1660ff16815260200191505060405180910390f35b610357600480360381019080803563ffffffff169060200190929190803560ff169060200190929190803560ff169060200190929190803590602001908201803590602001908080601f0160208091040260200160405190810160405280939291908181526020018383808284378201915050505050509192919290505050610894565b005b34801561036557600080fd5b5061036e610d63565b6040518082815260200191505060405180910390f35b34801561039057600080fd5b506103b5600480360381019080803563ffffffff169060200190929190505050610d70565b604051808273ffffffffffffffffffffffffffffffffffffffff1673ffffffffffffffffffffffffffffffffffffffff16815260200191505060405180910390f35b34801561040357600080fd5b5061042260048036038101908080359060200190929190505050610dbf565b604051808863ffffffff1663ffffffff1681526020018773ffffffffffffffffffffffffffffffffffffffff1673ffffffffffffffffffffffffffffffffffffffff1681526020018681526020018560ff1660ff1681526020018460ff1660ff16815260200180602001838152602001828103825284818151815260200191508051906020019080838360005b838110156104ca5780820151818401526020810190506104af565b50505050905090810190601f1680156104f75780820380516001836020036101000a031916815260200191505b509850505050505050505060405180910390f35b34801561051757600080fd5b5061054c600480360381019080803573ffffffffffffffffffffffffffffffffffffffff169060200190929190505050610ef2565b604051808263ffffffff1663ffffffff16815260200191505060405180910390f35b34801561057a57600080fd5b5061059f600480360381019080803563ffffffff169060200190929190505050610f15565b6040518080602001828103825283818151815260200191508051906020019080838360005b838110156105df5780820151818401526020810190506105c4565b50505050905090810190601f16801561060c5780820380516001836020036101000a031916815260200191505b509250505060405180910390f35b34801561062657600080fd5b5061064b600480360381019080803563ffffffff169060200190929190505050610fdd565b604051808260ff1660ff16815260200191505060405180910390f35b600080600560009054906101000a900460ff1615151561068657600080fd5b600560019054906101000a900473ffffffffffffffffffffffffffffffffffffffff1673ffffffffffffffffffffffffffffffffffffffff163373ffffffffffffffffffffffffffffffffffffffff161415156106e257600080fd5b6001600560006101000a81548160ff021916908315150217905550600560199054906101000a900463ffffffff1663ffffffff1660015481151561072257fe5b049150600090505b600560199054906101000a900463ffffffff1663ffffffff168163ffffffff1610156107ae576107a060008263ffffffff1681548110151561076857fe5b906000526020600020906005020160000160049054906101000a900473ffffffffffffffffffffffffffffffffffffffff1683611019565b50808060010191505061072a565b5050565b600560009054906101000a900460ff1681565b6003818154811015156107d457fe5b906000526020600020016000915054906101000a900473ffffffffffffffffffffffffffffffffffffffff1681565b8060078190555050565b60015481565b6000600754905090565b6000808263ffffffff1681548110151561083357fe5b9060005260206000209060050201600101549050919050565b60008080549050905090565b6000808263ffffffff1681548110151561086e57fe5b906000526020600020906005020160020160019054906101000a900460ff169050919050565b60008060008060006108a4611442565b600560009054906101000a900460ff161515156108c057600080fd5b89600560199054906101000a900463ffffffff1663ffffffff168163ffffffff161015156108ed57600080fd5b3496506003600260008d63ffffffff1681548110151561090957fe5b90600052602060002090600502016001015481151561092457fe5b0402871015151561093457600080fd5b600560159054906101000a900463ffffffff1663ffffffff1688511115151561095c57600080fd5b60008b63ffffffff1681548110151561097157fe5b906000526020600020906005020160000160049054906101000a900473ffffffffffffffffffffffffffffffffffffffff16955060008b63ffffffff168154811015156109ba57fe5b9060005260206000209060050201600101549450600560019054906101000a900473ffffffffffffffffffffffffffffffffffffffff1673ffffffffffffffffffffffffffffffffffffffff168673ffffffffffffffffffffffffffffffffffffffff161415610a7857600a87811515610a3057fe5b049350610a62600560019054906101000a900473ffffffffffffffffffffffffffffffffffffffff1660098602611019565b5083600160008282540192505081905550610ae6565b610a828686611019565b508487039250600a83811515610a9457fe5b049250610aa48660058502611019565b50610ad4600560019054906101000a900473ffffffffffffffffffffffffffffffffffffffff1660048502611019565b50826001600082825401925050819055505b60e0604051908101604052808c63ffffffff1681526020013373ffffffffffffffffffffffffffffffffffffffff1681526020018881526020018b60ff1681526020018a60ff1681526020018981526020014281525091508160008c63ffffffff16815481101515610b5457fe5b906000526020600020906005020160008201518160000160006101000a81548163ffffffff021916908363ffffffff16021790555060208201518160000160046101000a81548173ffffffffffffffffffffffffffffffffffffffff021916908373ffffffffffffffffffffffffffffffffffffffff1602179055506040820151816001015560608201518160020160006101000a81548160ff021916908360ff16021790555060808201518160020160016101000a81548160ff021916908360ff16021790555060a0820151816003019080519060200190610c389291906114a2565b5060c08201518160040155905050610c4e611092565b7f9093c41fa0314744ab6acdf28713e63b3e7226c2e96fd85a06dad34cb79cda468b33898d8d8d604051808763ffffffff1663ffffffff1681526020018673ffffffffffffffffffffffffffffffffffffffff1673ffffffffffffffffffffffffffffffffffffffff1681526020018581526020018460ff1660ff1681526020018360ff1660ff16815260200180602001828103825283818151815260200191508051906020019080838360005b83811015610d17578082015181840152602081019050610cfc565b50505050905090810190601f168015610d445780820380516001836020036101000a031916815260200191505b5097505050505050505060405180910390a15050505050505050505050565b6000600380549050905090565b6000808263ffffffff16815481101515610d8657fe5b906000526020600020906005020160000160049054906101000a900473ffffffffffffffffffffffffffffffffffffffff169050919050565b600081815481101515610dce57fe5b90600052602060002090600502016000915090508060000160009054906101000a900463ffffffff16908060000160049054906101000a900473ffffffffffffffffffffffffffffffffffffffff16908060010154908060020160009054906101000a900460ff16908060020160019054906101000a900460ff1690806003018054600181600116156101000203166002900480601f016020809104026020016040519081016040528092919081815260200182805460018160011615610100020316600290048015610ee25780601f10610eb757610100808354040283529160200191610ee2565b820191906000526020600020905b815481529060010190602001808311610ec557829003601f168201915b5050505050908060040154905087565b60026020528060005260406000206000915054906101000a900463ffffffff1681565b606060008263ffffffff16815481101515610f2c57fe5b90600052602060002090600502016003018054600181600116156101000203166002900480601f016020809104026020016040519081016040528092919081815260200182805460018160011615610100020316600290048015610fd15780601f10610fa657610100808354040283529160200191610fd1565b820191906000526020600020905b815481529060010190602001808311610fb457829003601f168201915b50505050509050919050565b6000808263ffffffff16815481101515610ff357fe5b906000526020600020906005020160020160009054906101000a900460ff169050919050565b60003073ffffffffffffffffffffffffffffffffffffffff1631821115151561104157600080fd5b8273ffffffffffffffffffffffffffffffffffffffff166108fc839081150290604051600060405180830381858888f19350505050158015611087573d6000803e3d6000fd5b506001905092915050565b600080600360006110a39190611522565b600091505b600560199054906101000a900463ffffffff1663ffffffff168263ffffffff1610156111db5760008263ffffffff168154811015156110e357fe5b906000526020600020906005020160000160049054906101000a900473ffffffffffffffffffffffffffffffffffffffff1690506000600260008373ffffffffffffffffffffffffffffffffffffffff1673ffffffffffffffffffffffffffffffffffffffff16815260200190815260200160002060006101000a81548163ffffffff021916908363ffffffff1602179055506000600460008373ffffffffffffffffffffffffffffffffffffffff1673ffffffffffffffffffffffffffffffffffffffff16815260200190815260200160002060006101000a81548160ff02191690831515021790555081806001019250506110a8565b600091505b600560199054906101000a900463ffffffff1663ffffffff168263ffffffff16101561143e5760008263ffffffff1681548110151561121b57fe5b906000526020600020906005020160000160049054906101000a900473ffffffffffffffffffffffffffffffffffffffff169050600560019054906101000a900473ffffffffffffffffffffffffffffffffffffffff1673ffffffffffffffffffffffffffffffffffffffff168173ffffffffffffffffffffffffffffffffffffffff1614151561143157600260008273ffffffffffffffffffffffffffffffffffffffff1673ffffffffffffffffffffffffffffffffffffffff168152602001908152602001600020600081819054906101000a900463ffffffff168092919060010191906101000a81548163ffffffff021916908363ffffffff16021790555050600460008273ffffffffffffffffffffffffffffffffffffffff1673ffffffffffffffffffffffffffffffffffffffff16815260200190815260200160002060009054906101000a900460ff161515611430576001600460008373ffffffffffffffffffffffffffffffffffffffff1673ffffffffffffffffffffffffffffffffffffffff16815260200190815260200160002060006101000a81548160ff02191690831515021790555060038190806001815401808255809150509060018203906000526020600020016000909192909190916101000a81548173ffffffffffffffffffffffffffffffffffffffff021916908373ffffffffffffffffffffffffffffffffffffffff160217905550505b5b81806001019250506111e0565b5050565b60e060405190810160405280600063ffffffff168152602001600073ffffffffffffffffffffffffffffffffffffffff16815260200160008152602001600060ff168152602001600060ff16815260200160608152602001600081525090565b828054600181600116156101000203166002900490600052602060002090601f016020900481019282601f106114e357805160ff1916838001178555611511565b82800160010185558215611511579182015b828111156115105782518255916020019190600101906114f5565b5b50905061151e9190611543565b5090565b50805460008255906000526020600020908101906115409190611543565b50565b61156591905b80821115611561576000816000905550600101611549565b5090565b905600a165627a7a723058206535f64f5729b7c8c301d0082f2e11334b329edfafd46e6e75ab66b2d29a66f00029",
  "source": "pragma solidity ^0.4.25;\n\ncontract Book\n{\n    // 佈署的時候決定段落總數,每段字數上限\n    constructor(uint32 maxPart, uint32 maxChar) public\n    {\n        owner = msg.sender;\n        totalPart = maxPart;\n        maxCharPerPart = maxChar;\n        init();\n    }\n    \n    // 段落更新成功時發送通知\n    event storyUpdated(uint32 partID, address author, uint256 currentValue, uint8 color, uint8 font, string content);\n    \n    // 段落定義\n    struct StoryPart\n    {\n        uint32 id;              //段落編號\n        address author;         //該段落目前作者\n        uint256 currentValue;   //目前價值\n        uint8 color;            //文字顏色\n        uint8 font;             //文字字型\n        string content;         //段落文字內容\n        uint256 timestamp;      //交易完成時間\n    }\n    \n//region members\n    // public 所有段落內容\n    StoryPart[] public parts;\n    \n    // public 獎金池\n    uint256 public rewardPool = 0;\n    \n    // public 排行榜 (作者錢包地址與貢獻段落數量)\n    mapping(address => uint32) public leaderboard;\n    address[] public leaderboardAddrs;\n    mapping(address => bool) inLeaderboard;\n    //uint32 leaderboardCount = 0;\n    \n    // public 已結束編輯了嗎，若結束編輯則所有會更動資料的功能都不能用\n    bool public isEnd = false;\n    \n    // 我們服務用的錢包地址\n    address owner;\n    \n    // 每段字數上限\n    uint32 maxCharPerPart;\n    \n    // 段落總數\n    uint32 totalPart;\n    \n    // 所有段落的初始價值 1 Dexon\n    uint256 defaultValue = 1e18;\n\n    uint storedData;\n//endregion\n\n//region buy function    \n      \n    function set(uint x) public payable {\n        storedData = x;\n    }\n\n    function get() public view returns (uint) {\n        return storedData;\n    }\n    // 使用者購買段落所有權\n    function buyStoryPart(uint32 partID, uint8 color, uint8 font, string memory content)\n    editable inBook(partID) public  payable\n    {\n        // 檢查交易金額\n        uint256 value = msg.value;\n        require(value >= parts[partID].currentValue / 2 * 3);\n        \n        // 檢查字數\n        require(bytes(content).length <= maxCharPerPart);\n        \n        // 發錢囉\n        address lastAuthor = parts[partID].author;\n        uint256 lastValue = parts[partID].currentValue;\n        // 判斷有沒有使用者編輯過此段落\n        if(lastAuthor == owner)\n        {\n            uint256 n = value / 10;\n            // 給我們的酬勞\n            withdrawToSomeone(owner, n * 9);\n            // 進入獎金池\n            rewardPool += n;\n        }\n        else\n        {\n            // 先讓前一位作者拿回本金\n            withdrawToSomeone(lastAuthor, lastValue);\n            // 分配剩餘金額\n            uint256 m = value - lastValue;\n            m = m / 10;\n            // 前一位作者的紅利\n            withdrawToSomeone(lastAuthor, m * 5);\n            // 給我們的酬勞\n            withdrawToSomeone(owner, m * 4);\n            // 進入獎金池\n            rewardPool += m;\n        }\n        \n        //交易成立，更改段落\n        StoryPart memory part = StoryPart(partID, msg.sender, value, color, font, content, block.timestamp);\n        parts[partID] = part;\n        \n        //更新排行榜\n        updateLeaderboard();\n        \n        //發送更動段落的通知\n        emit storyUpdated(partID, msg.sender, value, color, font, content);\n    }\n//endregion  \n    \n//region the end\n    // 結束編輯此書\n    function theEnd() editable onlyOwner public\n    {\n        isEnd = true;\n        uint256 n = rewardPool / totalPart;\n        for(uint32 i = 0; i < totalPart ; i++)\n        {\n            withdrawToSomeone(parts[i].author, n);\n        }\n    }\n//endregion\n    \n//region get function\n    // 取得排行榜數量\n    function getLeaderboardCount()public view returns(uint256) \n    {\n        return leaderboardAddrs.length;\n    }\n\n    // 故事段落總數\n    function getStoryPartCount() public view returns(uint256) \n    {\n        return parts.length;\n    }\n    \n    // 輸入故事段落編號，取得該段落上次出價金額\n    function getLastValueByID(uint32 partID) public view returns(uint256)\n    {\n        return parts[partID].currentValue;\n    }\n    \n    // 輸入故事段落編號，取得該段落作者Dexon錢包地址 (暱稱需另外儲存在我們自己的Server上，否則更改暱稱需經過區塊鏈運算)\n    function getAuthorAddressByID(uint32 partID) public view returns(address)\n    {\n        return parts[partID].author;\n    }\n    \n    // 輸入故事段落編號，取得該段落文字內容\n    function getContentByID(uint32 partID) public view returns(string memory)\n    {\n        return parts[partID].content;\n    }\n    \n    // 輸入故事段落編號，取得該段落文字顏色\n    function getColorByID(uint32 partID) public view returns(uint8)\n    {\n        return parts[partID].color;\n    }\n    \n    // 輸入故事段落編號，取得該段落文字字型\n    function getFontByID(uint32 partID) public view returns(uint8)\n    {\n        return parts[partID].font;\n    }\n//endregion\n\n//region private function   \n    // 更新排行榜\n    function updateLeaderboard() private\n    {\n        delete leaderboardAddrs;\n        \n        for(uint32 i = 0; i < totalPart ; i++)\n        {\n            address addr = parts[i].author;\n            leaderboard[addr] = 0;\n            inLeaderboard[addr] = false;\n        }\n        \n        for(i = 0; i < totalPart ; i++)\n        {\n            addr = parts[i].author;\n            if(addr != owner)\n            {\n                leaderboard[addr] ++;\n                if(!inLeaderboard[addr])\n                {\n                    inLeaderboard[addr] = true;\n                    leaderboardAddrs.push(addr);\n                }\n            }\n        }\n    }\n\n    // 初始化所有段落\n    function init () private\n    {\n        for(uint32 i = 0; i < totalPart ; i++)\n        {\n            StoryPart memory part = StoryPart(i, owner, defaultValue, 0, 0, \"\", block.timestamp);\n            parts.push(part);\n        }\n    }\n    \n    // 轉帳出去\n    function withdrawToSomeone(address someone, uint amount) private returns(bool) {\n        require(amount <= address(this).balance);\n        address(someone).transfer(amount);\n        return true;\n    }\n    \n    // 我們服務專用的功能\n    modifier onlyOwner() {\n        require(msg.sender == owner);\n        _;\n    }\n    \n    // 是在範圍內的段落編號\n    modifier inBook(uint32 partID) {\n        require(partID < totalPart);\n        _;\n    }\n    \n    // 判斷書還可以編輯\n    modifier editable() {\n        require(!isEnd);\n        _;\n    }\n//endregion\n    \n}",
  "sourcePath": "/Users/allenhsu/Documents/project/dexon-hackathon/contracts/Book.sol",
  "compiler": {
    "name": "dsolc",
    "version": "0.4.25+commit.433aebb7.Emscripten.clang"
  },
  "schemaVersion": "2.0.2",
  "updatedAt": "2019-01-22T13:47:09.331Z"
}