{
  "contractName": "Book",
  "abi": [
    {
      "constant": true,
      "inputs": [],
      "name": "isEnd",
      "outputs": [
        {
          "name": "",
          "type": "bool"
        }
      ],
      "payable": false,
      "stateMutability": "view",
      "type": "function"
    },
    {
      "constant": true,
      "inputs": [],
      "name": "rewardPool",
      "outputs": [
        {
          "name": "",
          "type": "uint256"
        }
      ],
      "payable": false,
      "stateMutability": "view",
      "type": "function"
    },
    {
      "constant": true,
      "inputs": [
        {
          "name": "",
          "type": "uint256"
        }
      ],
      "name": "parts",
      "outputs": [
        {
          "name": "id",
          "type": "uint32"
        },
        {
          "name": "author",
          "type": "address"
        },
        {
          "name": "currentValue",
          "type": "uint256"
        },
        {
          "name": "color",
          "type": "uint8"
        },
        {
          "name": "font",
          "type": "uint8"
        },
        {
          "name": "content",
          "type": "string"
        },
        {
          "name": "timestamp",
          "type": "uint256"
        }
      ],
      "payable": false,
      "stateMutability": "view",
      "type": "function"
    },
    {
      "constant": true,
      "inputs": [
        {
          "name": "",
          "type": "address"
        }
      ],
      "name": "leaderboard",
      "outputs": [
        {
          "name": "",
          "type": "uint32"
        }
      ],
      "payable": false,
      "stateMutability": "view",
      "type": "function"
    },
    {
      "inputs": [
        {
          "name": "maxPart",
          "type": "uint32"
        },
        {
          "name": "maxChar",
          "type": "uint32"
        }
      ],
      "payable": false,
      "stateMutability": "nonpayable",
      "type": "constructor"
    },
    {
      "anonymous": false,
      "inputs": [
        {
          "indexed": false,
          "name": "partID",
          "type": "uint32"
        },
        {
          "indexed": false,
          "name": "author",
          "type": "address"
        },
        {
          "indexed": false,
          "name": "currentValue",
          "type": "uint256"
        },
        {
          "indexed": false,
          "name": "color",
          "type": "uint8"
        },
        {
          "indexed": false,
          "name": "font",
          "type": "uint8"
        },
        {
          "indexed": false,
          "name": "content",
          "type": "string"
        }
      ],
      "name": "storyUpdated",
      "type": "event"
    },
    {
      "constant": false,
      "inputs": [
        {
          "name": "x",
          "type": "uint256"
        }
      ],
      "name": "set",
      "outputs": [],
      "payable": true,
      "stateMutability": "payable",
      "type": "function"
    },
    {
      "constant": true,
      "inputs": [],
      "name": "get",
      "outputs": [
        {
          "name": "",
          "type": "uint256"
        }
      ],
      "payable": false,
      "stateMutability": "view",
      "type": "function"
    },
    {
      "constant": false,
      "inputs": [
        {
          "name": "partID",
          "type": "uint32"
        },
        {
          "name": "color",
          "type": "uint8"
        },
        {
          "name": "font",
          "type": "uint8"
        },
        {
          "name": "content",
          "type": "string"
        }
      ],
      "name": "buyStoryPart",
      "outputs": [],
      "payable": true,
      "stateMutability": "payable",
      "type": "function"
    },
    {
      "constant": false,
      "inputs": [],
      "name": "theEnd",
      "outputs": [],
      "payable": false,
      "stateMutability": "nonpayable",
      "type": "function"
    },
    {
      "constant": true,
      "inputs": [],
      "name": "getStoryPartCount",
      "outputs": [
        {
          "name": "",
          "type": "uint256"
        }
      ],
      "payable": false,
      "stateMutability": "view",
      "type": "function"
    },
    {
      "constant": true,
      "inputs": [
        {
          "name": "partID",
          "type": "uint32"
        }
      ],
      "name": "getLastValueByID",
      "outputs": [
        {
          "name": "",
          "type": "uint256"
        }
      ],
      "payable": false,
      "stateMutability": "view",
      "type": "function"
    },
    {
      "constant": true,
      "inputs": [
        {
          "name": "partID",
          "type": "uint32"
        }
      ],
      "name": "getAuthorAddressByID",
      "outputs": [
        {
          "name": "",
          "type": "address"
        }
      ],
      "payable": false,
      "stateMutability": "view",
      "type": "function"
    },
    {
      "constant": true,
      "inputs": [
        {
          "name": "partID",
          "type": "uint32"
        }
      ],
      "name": "getContentByID",
      "outputs": [
        {
          "name": "",
          "type": "string"
        }
      ],
      "payable": false,
      "stateMutability": "view",
      "type": "function"
    },
    {
      "constant": true,
      "inputs": [
        {
          "name": "partID",
          "type": "uint32"
        }
      ],
      "name": "getColorByID",
      "outputs": [
        {
          "name": "",
          "type": "uint8"
        }
      ],
      "payable": false,
      "stateMutability": "view",
      "type": "function"
    },
    {
      "constant": true,
      "inputs": [
        {
          "name": "partID",
          "type": "uint32"
        }
      ],
      "name": "getFontByID",
      "outputs": [
        {
          "name": "",
          "type": "uint8"
        }
      ],
      "payable": false,
      "stateMutability": "view",
      "type": "function"
    }
  ],
  "bytecode": "0x608060405260006001556000600360006101000a81548160ff021916908315150217905550670de0b6b3a76400006004553480156200003d57600080fd5b5060405160408062001625833981018060405281019080805190602001909291908051906020019092919050505033600360016101000a81548173ffffffffffffffffffffffffffffffffffffffff021916908373ffffffffffffffffffffffffffffffffffffffff16021790555081600360196101000a81548163ffffffff021916908363ffffffff16021790555080600360156101000a81548163ffffffff021916908363ffffffff160217905550620001076200010f640100000000026401000000009004565b50506200040a565b60006200011b620002fb565b600091505b600360199054906101000a900463ffffffff1663ffffffff168263ffffffff161015620002f75760e0604051908101604052808363ffffffff168152602001600360019054906101000a900473ffffffffffffffffffffffffffffffffffffffff1673ffffffffffffffffffffffffffffffffffffffff1681526020016004548152602001600060ff168152602001600060ff168152602001602060405190810160405280600081525081526020014281525090506000819080600181540180825580915050906001820390600052602060002090600502016000909192909190915060008201518160000160006101000a81548163ffffffff021916908363ffffffff16021790555060208201518160000160046101000a81548173ffffffffffffffffffffffffffffffffffffffff021916908373ffffffffffffffffffffffffffffffffffffffff1602179055506040820151816001015560608201518160020160006101000a81548160ff021916908360ff16021790555060808201518160020160016101000a81548160ff021916908360ff16021790555060a0820151816003019080519060200190620002db9291906200035b565b5060c08201518160040155505050818060010192505062000120565b5050565b60e060405190810160405280600063ffffffff168152602001600073ffffffffffffffffffffffffffffffffffffffff16815260200160008152602001600060ff168152602001600060ff16815260200160608152602001600081525090565b828054600181600116156101000203166002900490600052602060002090601f016020900481019282601f106200039e57805160ff1916838001178555620003cf565b82800160010185558215620003cf579182015b82811115620003ce578251825591602001919060010190620003b1565b5b509050620003de9190620003e2565b5090565b6200040791905b8082111562000403576000816000905550600101620003e9565b5090565b90565b61120b806200041a6000396000f3006080604052600436106100d0576000357c0100000000000000000000000000000000000000000000000000000000900463ffffffff16806322b68deb146100d55780632fc6e8b7146100ec57806360fe47b11461011b57806366666aa91461013b5780636d4ce63c146101665780638dab2ef014610191578063973e1ffa146101d85780639f3ca88514610203578063a932937214610250578063c0a3155f146102d6578063c9eb466214610349578063d1d33d201461045d578063dc01fd99146104c0578063edc1ff291461056c575b600080fd5b3480156100e157600080fd5b506100ea6105b9565b005b3480156100f857600080fd5b50610101610704565b604051808215151515815260200191505060405180910390f35b61013960048036038101908080359060200190929190505050610717565b005b34801561014757600080fd5b50610150610721565b6040518082815260200191505060405180910390f35b34801561017257600080fd5b5061017b610727565b6040518082815260200191505060405180910390f35b34801561019d57600080fd5b506101c2600480360381019080803563ffffffff169060200190929190505050610731565b6040518082815260200191505060405180910390f35b3480156101e457600080fd5b506101ed610760565b6040518082815260200191505060405180910390f35b34801561020f57600080fd5b50610234600480360381019080803563ffffffff16906020019092919050505061076c565b604051808260ff1660ff16815260200191505060405180910390f35b6102d4600480360381019080803563ffffffff169060200190929190803560ff169060200190929190803560ff169060200190929190803590602001908201803590602001908080601f01602080910402602001604051908101604052809392919081815260200183838082843782019150505050505091929192905050506107a8565b005b3480156102e257600080fd5b50610307600480360381019080803563ffffffff169060200190929190505050610db8565b604051808273ffffffffffffffffffffffffffffffffffffffff1673ffffffffffffffffffffffffffffffffffffffff16815260200191505060405180910390f35b34801561035557600080fd5b5061037460048036038101908080359060200190929190505050610e07565b604051808863ffffffff1663ffffffff1681526020018773ffffffffffffffffffffffffffffffffffffffff1673ffffffffffffffffffffffffffffffffffffffff1681526020018681526020018560ff1660ff1681526020018460ff1660ff16815260200180602001838152602001828103825284818151815260200191508051906020019080838360005b8381101561041c578082015181840152602081019050610401565b50505050905090810190601f1680156104495780820380516001836020036101000a031916815260200191505b509850505050505050505060405180910390f35b34801561046957600080fd5b5061049e600480360381019080803573ffffffffffffffffffffffffffffffffffffffff169060200190929190505050610f3a565b604051808263ffffffff1663ffffffff16815260200191505060405180910390f35b3480156104cc57600080fd5b506104f1600480360381019080803563ffffffff169060200190929190505050610f5d565b6040518080602001828103825283818151815260200191508051906020019080838360005b83811015610531578082015181840152602081019050610516565b50505050905090810190601f16801561055e5780820380516001836020036101000a031916815260200191505b509250505060405180910390f35b34801561057857600080fd5b5061059d600480360381019080803563ffffffff169060200190929190505050611025565b604051808260ff1660ff16815260200191505060405180910390f35b600080600360009054906101000a900460ff161515156105d857600080fd5b600360019054906101000a900473ffffffffffffffffffffffffffffffffffffffff1673ffffffffffffffffffffffffffffffffffffffff163373ffffffffffffffffffffffffffffffffffffffff1614151561063457600080fd5b6001600360006101000a81548160ff021916908315150217905550600360199054906101000a900463ffffffff1663ffffffff1660015481151561067457fe5b049150600090505b600360199054906101000a900463ffffffff1663ffffffff168163ffffffff161015610700576106f260008263ffffffff168154811015156106ba57fe5b906000526020600020906005020160000160049054906101000a900473ffffffffffffffffffffffffffffffffffffffff1683611061565b50808060010191505061067c565b5050565b600360009054906101000a900460ff1681565b8060058190555050565b60015481565b6000600554905090565b6000808263ffffffff1681548110151561074757fe5b9060005260206000209060050201600101549050919050565b60008080549050905090565b6000808263ffffffff1681548110151561078257fe5b906000526020600020906005020160020160019054906101000a900460ff169050919050565b60008060008060006107b86110da565b600360009054906101000a900460ff161515156107d457600080fd5b89600360199054906101000a900463ffffffff1663ffffffff168163ffffffff1610151561080157600080fd5b3496506003600260008d63ffffffff1681548110151561081d57fe5b90600052602060002090600502016001015481151561083857fe5b0402871015151561084857600080fd5b600360159054906101000a900463ffffffff1663ffffffff1688511115151561087057600080fd5b60008b63ffffffff1681548110151561088557fe5b906000526020600020906005020160000160049054906101000a900473ffffffffffffffffffffffffffffffffffffffff16955060008b63ffffffff168154811015156108ce57fe5b9060005260206000209060050201600101549450600360019054906101000a900473ffffffffffffffffffffffffffffffffffffffff1673ffffffffffffffffffffffffffffffffffffffff168673ffffffffffffffffffffffffffffffffffffffff16141561098c57600a8781151561094457fe5b049350610976600360019054906101000a900473ffffffffffffffffffffffffffffffffffffffff1660098602611061565b50836001600082825401925050819055506109fa565b6109968686611061565b508487039250600a838115156109a857fe5b0492506109b88660058502611061565b506109e8600360019054906101000a900473ffffffffffffffffffffffffffffffffffffffff1660048502611061565b50826001600082825401925050819055505b60e0604051908101604052808c63ffffffff1681526020013373ffffffffffffffffffffffffffffffffffffffff1681526020018881526020018b60ff1681526020018a60ff1681526020018981526020014281525091508160008c63ffffffff16815481101515610a6857fe5b906000526020600020906005020160008201518160000160006101000a81548163ffffffff021916908363ffffffff16021790555060208201518160000160046101000a81548173ffffffffffffffffffffffffffffffffffffffff021916908373ffffffffffffffffffffffffffffffffffffffff1602179055506040820151816001015560608201518160020160006101000a81548160ff021916908360ff16021790555060808201518160020160016101000a81548160ff021916908360ff16021790555060a0820151816003019080519060200190610b4c92919061113a565b5060c08201518160040155905050600260003373ffffffffffffffffffffffffffffffffffffffff1673ffffffffffffffffffffffffffffffffffffffff168152602001908152602001600020600081819054906101000a900463ffffffff168092919060010191906101000a81548163ffffffff021916908363ffffffff16021790555050600360019054906101000a900473ffffffffffffffffffffffffffffffffffffffff1673ffffffffffffffffffffffffffffffffffffffff168673ffffffffffffffffffffffffffffffffffffffff16141515610ca357600260008773ffffffffffffffffffffffffffffffffffffffff1673ffffffffffffffffffffffffffffffffffffffff168152602001908152602001600020600081819054906101000a900463ffffffff16809291906001900391906101000a81548163ffffffff021916908363ffffffff160217905550505b7f9093c41fa0314744ab6acdf28713e63b3e7226c2e96fd85a06dad34cb79cda468b33898d8d8d604051808763ffffffff1663ffffffff1681526020018673ffffffffffffffffffffffffffffffffffffffff1673ffffffffffffffffffffffffffffffffffffffff1681526020018581526020018460ff1660ff1681526020018360ff1660ff16815260200180602001828103825283818151815260200191508051906020019080838360005b83811015610d6c578082015181840152602081019050610d51565b50505050905090810190601f168015610d995780820380516001836020036101000a031916815260200191505b5097505050505050505060405180910390a15050505050505050505050565b6000808263ffffffff16815481101515610dce57fe5b906000526020600020906005020160000160049054906101000a900473ffffffffffffffffffffffffffffffffffffffff169050919050565b600081815481101515610e1657fe5b90600052602060002090600502016000915090508060000160009054906101000a900463ffffffff16908060000160049054906101000a900473ffffffffffffffffffffffffffffffffffffffff16908060010154908060020160009054906101000a900460ff16908060020160019054906101000a900460ff1690806003018054600181600116156101000203166002900480601f016020809104026020016040519081016040528092919081815260200182805460018160011615610100020316600290048015610f2a5780601f10610eff57610100808354040283529160200191610f2a565b820191906000526020600020905b815481529060010190602001808311610f0d57829003601f168201915b5050505050908060040154905087565b60026020528060005260406000206000915054906101000a900463ffffffff1681565b606060008263ffffffff16815481101515610f7457fe5b90600052602060002090600502016003018054600181600116156101000203166002900480601f0160208091040260200160405190810160405280929190818152602001828054600181600116156101000203166002900480156110195780601f10610fee57610100808354040283529160200191611019565b820191906000526020600020905b815481529060010190602001808311610ffc57829003601f168201915b50505050509050919050565b6000808263ffffffff1681548110151561103b57fe5b906000526020600020906005020160020160009054906101000a900460ff169050919050565b60003073ffffffffffffffffffffffffffffffffffffffff1631821115151561108957600080fd5b8273ffffffffffffffffffffffffffffffffffffffff166108fc839081150290604051600060405180830381858888f193505050501580156110cf573d6000803e3d6000fd5b506001905092915050565b60e060405190810160405280600063ffffffff168152602001600073ffffffffffffffffffffffffffffffffffffffff16815260200160008152602001600060ff168152602001600060ff16815260200160608152602001600081525090565b828054600181600116156101000203166002900490600052602060002090601f016020900481019282601f1061117b57805160ff19168380011785556111a9565b828001600101855582156111a9579182015b828111156111a857825182559160200191906001019061118d565b5b5090506111b691906111ba565b5090565b6111dc91905b808211156111d85760008160009055506001016111c0565b5090565b905600a165627a7a72305820ae015433c77237db6a2fecc3be49d979791e1e43b097def9b0bb577256505e900029",
  "source": "pragma solidity ^0.4.25;\n\ncontract Book\n{\n    // 佈署的時候決定段落總數,每段字數上限\n    constructor(uint32 maxPart, uint32 maxChar) public\n    {\n        owner = msg.sender;\n        totalPart = maxPart;\n        maxCharPerPart = maxChar;\n        init();\n    }\n    \n    // 段落更新成功時發送通知\n    event storyUpdated(uint32 partID, address author, uint256 currentValue, uint8 color, uint8 font, string content);\n    \n    // 段落定義\n    struct StoryPart\n    {\n        uint32 id;              //段落編號\n        address author;         //該段落目前作者\n        uint256 currentValue;   //目前價值\n        uint8 color;            //文字顏色\n        uint8 font;             //文字字型\n        string content;         //段落文字內容\n        uint256 timestamp;      //交易完成時間\n    }\n    \n//region members\n    // public 所有段落內容\n    StoryPart[] public parts;\n    \n    // public 獎金池\n    uint256 public rewardPool = 0;\n    \n    // public 排行榜 (作者錢包地址與貢獻段落數量)\n    mapping(address => uint32) public leaderboard;\n    \n    // public 已結束編輯了嗎，若結束編輯則所有會更動資料的功能都不能用\n    bool public isEnd = false;\n    \n    // 我們服務用的錢包地址\n    address owner;\n    \n    // 每段字數上限\n    uint32 maxCharPerPart;\n    \n    // 段落總數\n    uint32 totalPart;\n    \n    // 所有段落的初始價值 1 Dexon\n    uint256 defaultValue = 1e18;\n\n    uint storedData;\n//endregion\n\n//region buy function    \n      \n\n    function set(uint x) public payable {\n        storedData = x;\n    }\n\n    function get() public view returns (uint) {\n        return storedData;\n    }\n    // 使用者購買段落所有權\n    function buyStoryPart(uint32 partID, uint8 color, uint8 font, string memory content)\n    editable inBook(partID) public  payable\n    {\n        // 檢查交易金額\n        uint256 value = msg.value;\n        require(value >= parts[partID].currentValue / 2 * 3);\n        \n        // 檢查字數\n        require(bytes(content).length <= maxCharPerPart);\n        \n        // 發錢囉\n        address lastAuthor = parts[partID].author;\n        uint256 lastValue = parts[partID].currentValue;\n        // 判斷有沒有使用者編輯過此段落\n        if(lastAuthor == owner)\n        {\n            uint256 n = value / 10;\n            // 給我們的酬勞\n            withdrawToSomeone(owner, n * 9);\n            // 進入獎金池\n            rewardPool += n;\n        }\n        else\n        {\n            // 先讓前一位作者拿回本金\n            withdrawToSomeone(lastAuthor, lastValue);\n            // 分配剩餘金額\n            uint256 m = value - lastValue;\n            m = m / 10;\n            // 前一位作者的紅利\n            withdrawToSomeone(lastAuthor, m * 5);\n            // 給我們的酬勞\n            withdrawToSomeone(owner, m * 4);\n            // 進入獎金池\n            rewardPool += m;\n        }\n        \n        //交易成立，更改段落\n        StoryPart memory part = StoryPart(partID, msg.sender, value, color, font, content, block.timestamp);\n        parts[partID] = part;\n        //更新排行榜\n        leaderboard[msg.sender] ++;\n        if(lastAuthor != owner) leaderboard[lastAuthor] --;\n        //發送更動段落的通知\n        emit storyUpdated(partID, msg.sender, value, color, font, content);\n    }\n//endregion  \n    \n//region the end\n    // 結束編輯此書\n    function theEnd() editable onlyOwner public\n    {\n        isEnd = true;\n        uint256 n = rewardPool / totalPart;\n        for(uint32 i = 0; i < totalPart ; i++)\n        {\n            withdrawToSomeone(parts[i].author, n);\n        }\n    }\n//endregion\n    \n//region get function\n    function getStoryPartCount() public view returns(uint256) {\n        return parts.length;\n    }\n    // 輸入故事段落編號，取得該段落上次出價金額\n    function getLastValueByID(uint32 partID) public view returns(uint256)\n    {\n        return parts[partID].currentValue;\n    }\n    \n    // 輸入故事段落編號，取得該段落作者Dexon錢包地址 (暱稱需另外儲存在我們自己的Server上，否則更改暱稱需經過區塊鏈運算)\n    function getAuthorAddressByID(uint32 partID) public view returns(address)\n    {\n        return parts[partID].author;\n    }\n    \n    // 輸入故事段落編號，取得該段落文字內容\n    function getContentByID(uint32 partID) public view returns(string memory)\n    {\n        return parts[partID].content;\n    }\n    \n    // 輸入故事段落編號，取得該段落文字顏色\n    function getColorByID(uint32 partID) public view returns(uint8)\n    {\n        return parts[partID].color;\n    }\n    \n    // 輸入故事段落編號，取得該段落文字字型\n    function getFontByID(uint32 partID) public view returns(uint8)\n    {\n        return parts[partID].font;\n    }\n//endregion\n\n//region private function   \n    // 初始化所有段落\n    function init () private\n    {\n        for(uint32 i = 0; i < totalPart ; i++)\n        {\n            StoryPart memory part = StoryPart(i, owner, defaultValue, 0, 0, \"\", block.timestamp);\n            parts.push(part);\n        }\n    }\n    \n    // 轉帳出去\n    function withdrawToSomeone(address someone, uint amount) private returns(bool) {\n        require(amount <= address(this).balance);\n        address(someone).transfer(amount);\n        return true;\n    }\n    \n    // 我們服務專用的功能\n    modifier onlyOwner() {\n        require(msg.sender == owner);\n        _;\n    }\n    \n    // 是在範圍內的段落編號\n    modifier inBook(uint32 partID) {\n        require(partID < totalPart);\n        _;\n    }\n    \n    // 判斷書還可以編輯\n    modifier editable() {\n        require(!isEnd);\n        _;\n    }\n//endregion\n    \n}",
  "sourcePath": "/Users/allenhsu/Documents/project/dexon-hackathon/contracts/Book.sol",
  "compiler": {
    "name": "dsolc",
    "version": "0.4.25+commit.433aebb7.Emscripten.clang"
  },
  "schemaVersion": "2.0.2",
  "updatedAt": "2018-12-16T03:40:07.222Z"
}