{
  "contractName": "Book",
  "abi": [
    {
      "constant": true,
      "inputs": [],
      "name": "isEnd",
      "outputs": [
        {
          "name": "",
          "type": "bool"
        }
      ],
      "payable": false,
      "stateMutability": "view",
      "type": "function"
    },
    {
      "constant": true,
      "inputs": [],
      "name": "rewardPool",
      "outputs": [
        {
          "name": "",
          "type": "uint256"
        }
      ],
      "payable": false,
      "stateMutability": "view",
      "type": "function"
    },
    {
      "constant": true,
      "inputs": [
        {
          "name": "",
          "type": "uint256"
        }
      ],
      "name": "parts",
      "outputs": [
        {
          "name": "id",
          "type": "uint32"
        },
        {
          "name": "author",
          "type": "address"
        },
        {
          "name": "currentValue",
          "type": "uint256"
        },
        {
          "name": "color",
          "type": "uint8"
        },
        {
          "name": "font",
          "type": "uint8"
        },
        {
          "name": "content",
          "type": "string"
        }
      ],
      "payable": false,
      "stateMutability": "view",
      "type": "function"
    },
    {
      "constant": true,
      "inputs": [
        {
          "name": "",
          "type": "address"
        }
      ],
      "name": "leaderboard",
      "outputs": [
        {
          "name": "",
          "type": "uint32"
        }
      ],
      "payable": false,
      "stateMutability": "view",
      "type": "function"
    },
    {
      "inputs": [
        {
          "name": "maxPart",
          "type": "uint32"
        },
        {
          "name": "maxChar",
          "type": "uint32"
        }
      ],
      "payable": false,
      "stateMutability": "nonpayable",
      "type": "constructor"
    },
    {
      "anonymous": false,
      "inputs": [
        {
          "indexed": false,
          "name": "partID",
          "type": "uint32"
        },
        {
          "indexed": false,
          "name": "author",
          "type": "address"
        },
        {
          "indexed": false,
          "name": "currentValue",
          "type": "uint256"
        },
        {
          "indexed": false,
          "name": "color",
          "type": "uint8"
        },
        {
          "indexed": false,
          "name": "font",
          "type": "uint8"
        },
        {
          "indexed": false,
          "name": "content",
          "type": "string"
        }
      ],
      "name": "storyUpdated",
      "type": "event"
    },
    {
      "constant": true,
      "inputs": [],
      "name": "getStoryPartCount",
      "outputs": [
        {
          "name": "",
          "type": "uint256"
        }
      ],
      "payable": false,
      "stateMutability": "view",
      "type": "function"
    },
    {
      "constant": false,
      "inputs": [
        {
          "name": "partID",
          "type": "uint32"
        },
        {
          "name": "color",
          "type": "uint8"
        },
        {
          "name": "font",
          "type": "uint8"
        },
        {
          "name": "content",
          "type": "string"
        }
      ],
      "name": "buyStoryPart",
      "outputs": [],
      "payable": true,
      "stateMutability": "payable",
      "type": "function"
    },
    {
      "constant": false,
      "inputs": [],
      "name": "theEnd",
      "outputs": [],
      "payable": false,
      "stateMutability": "nonpayable",
      "type": "function"
    },
    {
      "constant": true,
      "inputs": [
        {
          "name": "partID",
          "type": "uint32"
        }
      ],
      "name": "getLastValueByID",
      "outputs": [
        {
          "name": "",
          "type": "uint256"
        }
      ],
      "payable": false,
      "stateMutability": "view",
      "type": "function"
    },
    {
      "constant": true,
      "inputs": [
        {
          "name": "partID",
          "type": "uint32"
        }
      ],
      "name": "getAuthorAddressByID",
      "outputs": [
        {
          "name": "",
          "type": "address"
        }
      ],
      "payable": false,
      "stateMutability": "view",
      "type": "function"
    },
    {
      "constant": true,
      "inputs": [
        {
          "name": "partID",
          "type": "uint32"
        }
      ],
      "name": "getContentByID",
      "outputs": [
        {
          "name": "",
          "type": "string"
        }
      ],
      "payable": false,
      "stateMutability": "view",
      "type": "function"
    },
    {
      "constant": true,
      "inputs": [
        {
          "name": "partID",
          "type": "uint32"
        }
      ],
      "name": "getColorByID",
      "outputs": [
        {
          "name": "",
          "type": "uint8"
        }
      ],
      "payable": false,
      "stateMutability": "view",
      "type": "function"
    },
    {
      "constant": true,
      "inputs": [
        {
          "name": "partID",
          "type": "uint32"
        }
      ],
      "name": "getFontByID",
      "outputs": [
        {
          "name": "",
          "type": "uint8"
        }
      ],
      "payable": false,
      "stateMutability": "view",
      "type": "function"
    }
  ],
  "bytecode": "0x608060405260006001556000600360006101000a81548160ff021916908315150217905550670de0b6b3a76400006004553480156200003d57600080fd5b5060405160408062001575833981018060405281019080805190602001909291908051906020019092919050505033600360016101000a81548173ffffffffffffffffffffffffffffffffffffffff021916908373ffffffffffffffffffffffffffffffffffffffff16021790555081600360196101000a81548163ffffffff021916908363ffffffff16021790555080600360156101000a81548163ffffffff021916908363ffffffff160217905550620001076200010f640100000000026401000000009004565b5050620003f3565b60006200011b620002eb565b600091505b600360199054906101000a900463ffffffff1663ffffffff168263ffffffff161015620002e75760c0604051908101604052808363ffffffff168152602001600360019054906101000a900473ffffffffffffffffffffffffffffffffffffffff1673ffffffffffffffffffffffffffffffffffffffff1681526020016004548152602001600060ff168152602001600060ff168152602001602060405190810160405280600081525081525090506000819080600181540180825580915050906001820390600052602060002090600402016000909192909190915060008201518160000160006101000a81548163ffffffff021916908363ffffffff16021790555060208201518160000160046101000a81548173ffffffffffffffffffffffffffffffffffffffff021916908373ffffffffffffffffffffffffffffffffffffffff1602179055506040820151816001015560608201518160020160006101000a81548160ff021916908360ff16021790555060808201518160020160016101000a81548160ff021916908360ff16021790555060a0820151816003019080519060200190620002d592919062000344565b50505050818060010192505062000120565b5050565b60c060405190810160405280600063ffffffff168152602001600073ffffffffffffffffffffffffffffffffffffffff16815260200160008152602001600060ff168152602001600060ff168152602001606081525090565b828054600181600116156101000203166002900490600052602060002090601f016020900481019282601f106200038757805160ff1916838001178555620003b8565b82800160010185558215620003b8579182015b82811115620003b75782518255916020019190600101906200039a565b5b509050620003c79190620003cb565b5090565b620003f091905b80821115620003ec576000816000905550600101620003d2565b5090565b90565b61117280620004036000396000f3006080604052600436106100ba576000357c0100000000000000000000000000000000000000000000000000000000900463ffffffff16806322b68deb146100bf5780632fc6e8b7146100d657806366666aa9146101055780638dab2ef014610130578063973e1ffa146101775780639f3ca885146101a2578063a9329372146101ef578063c0a3155f14610275578063c9eb4662146102e8578063d1d33d20146103f5578063dc01fd9914610458578063edc1ff2914610504575b600080fd5b3480156100cb57600080fd5b506100d4610551565b005b3480156100e257600080fd5b506100eb61069c565b604051808215151515815260200191505060405180910390f35b34801561011157600080fd5b5061011a6106af565b6040518082815260200191505060405180910390f35b34801561013c57600080fd5b50610161600480360381019080803563ffffffff1690602001909291905050506106b5565b6040518082815260200191505060405180910390f35b34801561018357600080fd5b5061018c6106e4565b6040518082815260200191505060405180910390f35b3480156101ae57600080fd5b506101d3600480360381019080803563ffffffff1690602001909291905050506106f0565b604051808260ff1660ff16815260200191505060405180910390f35b610273600480360381019080803563ffffffff169060200190929190803560ff169060200190929190803560ff169060200190929190803590602001908201803590602001908080601f016020809104026020016040519081016040528093929190818152602001838380828437820191505050505050919291929050505061072c565b005b34801561028157600080fd5b506102a6600480360381019080803563ffffffff169060200190929190505050610d2c565b604051808273ffffffffffffffffffffffffffffffffffffffff1673ffffffffffffffffffffffffffffffffffffffff16815260200191505060405180910390f35b3480156102f457600080fd5b5061031360048036038101908080359060200190929190505050610d7b565b604051808763ffffffff1663ffffffff1681526020018673ffffffffffffffffffffffffffffffffffffffff1673ffffffffffffffffffffffffffffffffffffffff1681526020018581526020018460ff1660ff1681526020018360ff1660ff16815260200180602001828103825283818151815260200191508051906020019080838360005b838110156103b557808201518184015260208101905061039a565b50505050905090810190601f1680156103e25780820380516001836020036101000a031916815260200191505b5097505050505050505060405180910390f35b34801561040157600080fd5b50610436600480360381019080803573ffffffffffffffffffffffffffffffffffffffff169060200190929190505050610ea8565b604051808263ffffffff1663ffffffff16815260200191505060405180910390f35b34801561046457600080fd5b50610489600480360381019080803563ffffffff169060200190929190505050610ecb565b6040518080602001828103825283818151815260200191508051906020019080838360005b838110156104c95780820151818401526020810190506104ae565b50505050905090810190601f1680156104f65780820380516001836020036101000a031916815260200191505b509250505060405180910390f35b34801561051057600080fd5b50610535600480360381019080803563ffffffff169060200190929190505050610f93565b604051808260ff1660ff16815260200191505060405180910390f35b600080600360009054906101000a900460ff1615151561057057600080fd5b600360019054906101000a900473ffffffffffffffffffffffffffffffffffffffff1673ffffffffffffffffffffffffffffffffffffffff163373ffffffffffffffffffffffffffffffffffffffff161415156105cc57600080fd5b6001600360006101000a81548160ff021916908315150217905550600360199054906101000a900463ffffffff1663ffffffff1660015481151561060c57fe5b049150600090505b600360199054906101000a900463ffffffff1663ffffffff168163ffffffff1610156106985761068a60008263ffffffff1681548110151561065257fe5b906000526020600020906004020160000160049054906101000a900473ffffffffffffffffffffffffffffffffffffffff1683610fcf565b508080600101915050610614565b5050565b600360009054906101000a900460ff1681565b60015481565b6000808263ffffffff168154811015156106cb57fe5b9060005260206000209060040201600101549050919050565b60008080549050905090565b6000808263ffffffff1681548110151561070657fe5b906000526020600020906004020160020160019054906101000a900460ff169050919050565b600080600080600061073c611048565b600360009054906101000a900460ff1615151561075857600080fd5b89600360199054906101000a900463ffffffff1663ffffffff168163ffffffff1610151561078557600080fd5b3496506003600260008d63ffffffff168154811015156107a157fe5b9060005260206000209060040201600101548115156107bc57fe5b040287101515156107cc57600080fd5b600360159054906101000a900463ffffffff1663ffffffff168851111515156107f457600080fd5b60008b63ffffffff1681548110151561080957fe5b906000526020600020906004020160000160049054906101000a900473ffffffffffffffffffffffffffffffffffffffff16955060008b63ffffffff1681548110151561085257fe5b9060005260206000209060040201600101549450600360019054906101000a900473ffffffffffffffffffffffffffffffffffffffff1673ffffffffffffffffffffffffffffffffffffffff168673ffffffffffffffffffffffffffffffffffffffff16141561091057600a878115156108c857fe5b0493506108fa600360019054906101000a900473ffffffffffffffffffffffffffffffffffffffff1660098602610fcf565b508360016000828254019250508190555061097e565b61091a8686610fcf565b508487039250600a8381151561092c57fe5b04925061093c8660058502610fcf565b5061096c600360019054906101000a900473ffffffffffffffffffffffffffffffffffffffff1660048502610fcf565b50826001600082825401925050819055505b60c0604051908101604052808c63ffffffff1681526020013373ffffffffffffffffffffffffffffffffffffffff1681526020018881526020018b60ff1681526020018a60ff1681526020018981525091508160008c63ffffffff168154811015156109e657fe5b906000526020600020906004020160008201518160000160006101000a81548163ffffffff021916908363ffffffff16021790555060208201518160000160046101000a81548173ffffffffffffffffffffffffffffffffffffffff021916908373ffffffffffffffffffffffffffffffffffffffff1602179055506040820151816001015560608201518160020160006101000a81548160ff021916908360ff16021790555060808201518160020160016101000a81548160ff021916908360ff16021790555060a0820151816003019080519060200190610aca9291906110a1565b50905050600260003373ffffffffffffffffffffffffffffffffffffffff1673ffffffffffffffffffffffffffffffffffffffff168152602001908152602001600020600081819054906101000a900463ffffffff168092919060010191906101000a81548163ffffffff021916908363ffffffff16021790555050600360019054906101000a900473ffffffffffffffffffffffffffffffffffffffff1673ffffffffffffffffffffffffffffffffffffffff168673ffffffffffffffffffffffffffffffffffffffff16141515610c1757600260008773ffffffffffffffffffffffffffffffffffffffff1673ffffffffffffffffffffffffffffffffffffffff168152602001908152602001600020600081819054906101000a900463ffffffff16809291906001900391906101000a81548163ffffffff021916908363ffffffff160217905550505b7f9093c41fa0314744ab6acdf28713e63b3e7226c2e96fd85a06dad34cb79cda468b33898d8d8d604051808763ffffffff1663ffffffff1681526020018673ffffffffffffffffffffffffffffffffffffffff1673ffffffffffffffffffffffffffffffffffffffff1681526020018581526020018460ff1660ff1681526020018360ff1660ff16815260200180602001828103825283818151815260200191508051906020019080838360005b83811015610ce0578082015181840152602081019050610cc5565b50505050905090810190601f168015610d0d5780820380516001836020036101000a031916815260200191505b5097505050505050505060405180910390a15050505050505050505050565b6000808263ffffffff16815481101515610d4257fe5b906000526020600020906004020160000160049054906101000a900473ffffffffffffffffffffffffffffffffffffffff169050919050565b600081815481101515610d8a57fe5b90600052602060002090600402016000915090508060000160009054906101000a900463ffffffff16908060000160049054906101000a900473ffffffffffffffffffffffffffffffffffffffff16908060010154908060020160009054906101000a900460ff16908060020160019054906101000a900460ff1690806003018054600181600116156101000203166002900480601f016020809104026020016040519081016040528092919081815260200182805460018160011615610100020316600290048015610e9e5780601f10610e7357610100808354040283529160200191610e9e565b820191906000526020600020905b815481529060010190602001808311610e8157829003601f168201915b5050505050905086565b60026020528060005260406000206000915054906101000a900463ffffffff1681565b606060008263ffffffff16815481101515610ee257fe5b90600052602060002090600402016003018054600181600116156101000203166002900480601f016020809104026020016040519081016040528092919081815260200182805460018160011615610100020316600290048015610f875780601f10610f5c57610100808354040283529160200191610f87565b820191906000526020600020905b815481529060010190602001808311610f6a57829003601f168201915b50505050509050919050565b6000808263ffffffff16815481101515610fa957fe5b906000526020600020906004020160020160009054906101000a900460ff169050919050565b60003073ffffffffffffffffffffffffffffffffffffffff16318211151515610ff757600080fd5b8273ffffffffffffffffffffffffffffffffffffffff166108fc839081150290604051600060405180830381858888f1935050505015801561103d573d6000803e3d6000fd5b506001905092915050565b60c060405190810160405280600063ffffffff168152602001600073ffffffffffffffffffffffffffffffffffffffff16815260200160008152602001600060ff168152602001600060ff168152602001606081525090565b828054600181600116156101000203166002900490600052602060002090601f016020900481019282601f106110e257805160ff1916838001178555611110565b82800160010185558215611110579182015b8281111561110f5782518255916020019190600101906110f4565b5b50905061111d9190611121565b5090565b61114391905b8082111561113f576000816000905550600101611127565b5090565b905600a165627a7a7230582058acf5a0daedfe18b328f838587dfd0058e9df92d5edf0ab09d0daf26d85272d0029",
  "source": "pragma solidity ^0.4.25;\n\ncontract Book\n{\n    // 佈署的時候決定段落總數,每段字數上限\n    constructor(uint32 maxPart, uint32 maxChar) public\n    {\n        owner = msg.sender;\n        totalPart = maxPart;\n        maxCharPerPart = maxChar;\n        init();\n    }\n    \n    // 段落更新成功時發送通知\n    event storyUpdated(uint32 partID, address author, uint256 currentValue, uint8 color, uint8 font, string content);\n    \n    // 段落定義\n    struct StoryPart\n    {\n        uint32 id;              //段落編號\n        address author;         //該段落目前作者\n        uint256 currentValue;   //目前價值\n        uint8 color;            //文字顏色\n        uint8 font;             //文字字型\n        string content;         //段落文字內容\n    }\n    \n//region members\n    // public 所有段落內容\n    StoryPart[] public parts;\n    \n    // public 獎金池\n    uint256 public rewardPool = 0;\n    \n    // public 排行榜 (作者錢包地址與貢獻段落數量)\n    mapping(address => uint32) public leaderboard;\n    \n    // public 已結束編輯了嗎，若結束編輯則所有會更動資料的功能都不能用\n    bool public isEnd = false;\n    \n    // 我們服務用的錢包地址\n    address owner;\n    \n    // 每段字數上限\n    uint32 maxCharPerPart;\n    \n    // 段落總數\n    uint32 totalPart;\n    \n    // 所有段落的初始價值 1 Dexon\n    uint256 defaultValue = 1e18;\n//endregion\n\n//region buy function    \n    function getStoryPartCount() public view returns(uint256) {\n        return parts.length;\n    }\n    // 使用者購買段落所有權\n    function buyStoryPart(uint32 partID, uint8 color, uint8 font, string memory content)\n    editable inBook(partID) public  payable\n    {\n        // 檢查交易金額\n        uint256 value = msg.value;\n        require(value >= parts[partID].currentValue / 2 * 3);\n        \n        // 檢查字數\n        require(bytes(content).length <= maxCharPerPart);\n        \n        // 發錢囉\n        address lastAuthor = parts[partID].author;\n        uint256 lastValue = parts[partID].currentValue;\n        // 判斷有沒有使用者編輯過此段落\n        if(lastAuthor == owner)\n        {\n            uint256 n = value / 10;\n            // 給我們的酬勞\n            withdrawToSomeone(owner, n * 9);\n            // 進入獎金池\n            rewardPool += n;\n        }\n        else\n        {\n            // 先讓前一位作者拿回本金\n            withdrawToSomeone(lastAuthor, lastValue);\n            // 分配剩餘金額\n            uint256 m = value - lastValue;\n            m = m / 10;\n            // 前一位作者的紅利\n            withdrawToSomeone(lastAuthor, m * 5);\n            // 給我們的酬勞\n            withdrawToSomeone(owner, m * 4);\n            // 進入獎金池\n            rewardPool += m;\n        }\n        \n        //交易成立，更改段落\n        StoryPart memory part = StoryPart(partID, msg.sender, value, color, font, content);\n        parts[partID] = part;\n        //更新排行榜\n        leaderboard[msg.sender] ++;\n        if(lastAuthor != owner) leaderboard[lastAuthor] --;\n        //發送更動段落的通知\n        emit storyUpdated(partID, msg.sender, value, color, font, content);\n    }\n//endregion  \n    \n//region the end\n    // 結束編輯此書\n    function theEnd() editable onlyOwner public\n    {\n        isEnd = true;\n        uint256 n = rewardPool / totalPart;\n        for(uint32 i = 0; i < totalPart ; i++)\n        {\n            withdrawToSomeone(parts[i].author, n);\n        }\n    }\n//endregion\n    \n//region get function\n    // 輸入故事段落編號，取得該段落上次出價金額\n    function getLastValueByID(uint32 partID) public view returns(uint256)\n    {\n        return parts[partID].currentValue;\n    }\n    \n    // 輸入故事段落編號，取得該段落作者Dexon錢包地址 (暱稱需另外儲存在我們自己的Server上，否則更改暱稱需經過區塊鏈運算)\n    function getAuthorAddressByID(uint32 partID) public view returns(address)\n    {\n        return parts[partID].author;\n    }\n    \n    // 輸入故事段落編號，取得該段落文字內容\n    function getContentByID(uint32 partID) public view returns(string memory)\n    {\n        return parts[partID].content;\n    }\n    \n    // 輸入故事段落編號，取得該段落文字顏色\n    function getColorByID(uint32 partID) public view returns(uint8)\n    {\n        return parts[partID].color;\n    }\n    \n    // 輸入故事段落編號，取得該段落文字字型\n    function getFontByID(uint32 partID) public view returns(uint8)\n    {\n        return parts[partID].font;\n    }\n//endregion\n\n//region private function   \n    // 初始化所有段落\n    function init () private\n    {\n        for(uint32 i = 0; i < totalPart ; i++)\n        {\n            StoryPart memory part = StoryPart(i, owner, defaultValue, 0, 0, \"\");\n            parts.push(part);\n        }\n    }\n    \n    // 轉帳出去\n    function withdrawToSomeone(address someone, uint amount) private returns(bool) {\n        require(amount <= address(this).balance);\n        address(someone).transfer(amount);\n        return true;\n    }\n    \n    // 我們服務專用的功能\n    modifier onlyOwner() {\n        require(msg.sender == owner);\n        _;\n    }\n    \n    // 是在範圍內的段落編號\n    modifier inBook(uint32 partID) {\n        require(partID < totalPart);\n        _;\n    }\n    \n    // 判斷書還可以編輯\n    modifier editable() {\n        require(!isEnd);\n        _;\n    }\n//endregion\n    \n}",
  "sourcePath": "/Users/allenhsu/Documents/project/dexon-hackathon/contracts/Book.sol",
  "compiler": {
    "name": "dsolc",
    "version": "0.4.25+commit.433aebb7.Emscripten.clang"
  },
  "schemaVersion": "2.0.2",
  "updatedAt": "2018-12-15T18:13:14.423Z"
}